{
  "_format": "hh-sol-artifact-1",
  "contractName": "Trash",
  "sourceName": "contracts/Trash.sol",
  "abi": [
    {
      "inputs": [],
      "stateMutability": "nonpayable",
      "type": "constructor"
    },
    {
      "anonymous": false,
      "inputs": [
        {
          "indexed": true,
          "internalType": "address",
          "name": "user",
          "type": "address"
        },
        {
          "indexed": false,
          "internalType": "string",
          "name": "itemName",
          "type": "string"
        },
        {
          "indexed": false,
          "internalType": "uint256",
          "name": "itemId",
          "type": "uint256"
        },
        {
          "indexed": false,
          "internalType": "uint256",
          "name": "price",
          "type": "uint256"
        }
      ],
      "name": "ItemAdded",
      "type": "event"
    },
    {
      "anonymous": false,
      "inputs": [
        {
          "indexed": true,
          "internalType": "address",
          "name": "buyer",
          "type": "address"
        },
        {
          "indexed": true,
          "internalType": "address",
          "name": "seller",
          "type": "address"
        },
        {
          "indexed": false,
          "internalType": "uint256",
          "name": "itemId",
          "type": "uint256"
        },
        {
          "indexed": false,
          "internalType": "uint256",
          "name": "price",
          "type": "uint256"
        }
      ],
      "name": "ItemPurchased",
      "type": "event"
    },
    {
      "anonymous": false,
      "inputs": [
        {
          "indexed": true,
          "internalType": "address",
          "name": "reviewer",
          "type": "address"
        },
        {
          "indexed": true,
          "internalType": "address",
          "name": "reviewedUser",
          "type": "address"
        },
        {
          "indexed": false,
          "internalType": "uint256",
          "name": "reviewId",
          "type": "uint256"
        },
        {
          "indexed": false,
          "internalType": "string",
          "name": "content",
          "type": "string"
        }
      ],
      "name": "ReviewAdded",
      "type": "event"
    },
    {
      "anonymous": false,
      "inputs": [
        {
          "indexed": true,
          "internalType": "address",
          "name": "user",
          "type": "address"
        },
        {
          "indexed": false,
          "internalType": "string",
          "name": "name",
          "type": "string"
        }
      ],
      "name": "UserRegistered",
      "type": "event"
    },
    {
      "inputs": [],
      "name": "admin",
      "outputs": [
        {
          "internalType": "address",
          "name": "",
          "type": "address"
        }
      ],
      "stateMutability": "view",
      "type": "function"
    },
    {
      "inputs": [
        {
          "internalType": "uint256",
          "name": "",
          "type": "uint256"
        }
      ],
      "name": "allItems",
      "outputs": [
        {
          "internalType": "uint256",
          "name": "itemId",
          "type": "uint256"
        },
        {
          "internalType": "string",
          "name": "itemName",
          "type": "string"
        },
        {
          "internalType": "address payable",
          "name": "userAddress",
          "type": "address"
        },
        {
          "internalType": "uint256",
          "name": "price",
          "type": "uint256"
        },
        {
          "internalType": "string",
          "name": "imageURL",
          "type": "string"
        }
      ],
      "stateMutability": "view",
      "type": "function"
    },
    {
      "inputs": [
        {
          "internalType": "uint256",
          "name": "",
          "type": "uint256"
        }
      ],
      "name": "allReviews",
      "outputs": [
        {
          "internalType": "uint256",
          "name": "reviewId",
          "type": "uint256"
        },
        {
          "internalType": "address",
          "name": "reviewer",
          "type": "address"
        },
        {
          "internalType": "address",
          "name": "reviewedUser",
          "type": "address"
        },
        {
          "internalType": "string",
          "name": "content",
          "type": "string"
        }
      ],
      "stateMutability": "view",
      "type": "function"
    },
    {
      "inputs": [
        {
          "internalType": "address",
          "name": "",
          "type": "address"
        },
        {
          "internalType": "uint256",
          "name": "",
          "type": "uint256"
        }
      ],
      "name": "boughtItems",
      "outputs": [
        {
          "internalType": "uint256",
          "name": "itemId",
          "type": "uint256"
        },
        {
          "internalType": "string",
          "name": "itemName",
          "type": "string"
        },
        {
          "internalType": "address payable",
          "name": "userAddress",
          "type": "address"
        },
        {
          "internalType": "uint256",
          "name": "price",
          "type": "uint256"
        },
        {
          "internalType": "string",
          "name": "imageURL",
          "type": "string"
        }
      ],
      "stateMutability": "view",
      "type": "function"
    },
    {
      "inputs": [],
      "name": "boughtItemsfun",
      "outputs": [
        {
          "components": [
            {
              "internalType": "uint256",
              "name": "itemId",
              "type": "uint256"
            },
            {
              "internalType": "string",
              "name": "itemName",
              "type": "string"
            },
            {
              "internalType": "address payable",
              "name": "userAddress",
              "type": "address"
            },
            {
              "internalType": "uint256",
              "name": "price",
              "type": "uint256"
            },
            {
              "internalType": "string",
              "name": "imageURL",
              "type": "string"
            }
          ],
          "internalType": "struct Trash.Item[]",
          "name": "",
          "type": "tuple[]"
        }
      ],
      "stateMutability": "view",
      "type": "function"
    },
    {
      "inputs": [],
      "name": "itemcounter",
      "outputs": [
        {
          "internalType": "uint256",
          "name": "",
          "type": "uint256"
        }
      ],
      "stateMutability": "view",
      "type": "function"
    },
    {
      "inputs": [
        {
          "internalType": "uint256",
          "name": "",
          "type": "uint256"
        }
      ],
      "name": "items",
      "outputs": [
        {
          "internalType": "uint256",
          "name": "itemId",
          "type": "uint256"
        },
        {
          "internalType": "string",
          "name": "itemName",
          "type": "string"
        },
        {
          "internalType": "address payable",
          "name": "userAddress",
          "type": "address"
        },
        {
          "internalType": "uint256",
          "name": "price",
          "type": "uint256"
        },
        {
          "internalType": "string",
          "name": "imageURL",
          "type": "string"
        }
      ],
      "stateMutability": "view",
      "type": "function"
    },
    {
      "inputs": [
        {
          "internalType": "uint256",
          "name": "_itemId",
          "type": "uint256"
        }
      ],
      "name": "purchaseItem",
      "outputs": [],
      "stateMutability": "payable",
      "type": "function"
    },
    {
      "inputs": [
        {
          "internalType": "string",
          "name": "_name",
          "type": "string"
        },
        {
          "internalType": "string",
          "name": "_year",
          "type": "string"
        },
        {
          "internalType": "string",
          "name": "_branch",
          "type": "string"
        }
      ],
      "name": "registerUser",
      "outputs": [],
      "stateMutability": "nonpayable",
      "type": "function"
    },
    {
      "inputs": [],
      "name": "reviewCounter",
      "outputs": [
        {
          "internalType": "uint256",
          "name": "",
          "type": "uint256"
        }
      ],
      "stateMutability": "view",
      "type": "function"
    },
    {
      "inputs": [
        {
          "internalType": "string",
          "name": "_name",
          "type": "string"
        },
        {
          "internalType": "uint256",
          "name": "_price",
          "type": "uint256"
        },
        {
          "internalType": "string",
          "name": "_URL",
          "type": "string"
        }
      ],
      "name": "sellItem",
      "outputs": [],
      "stateMutability": "nonpayable",
      "type": "function"
    },
    {
      "inputs": [
        {
          "internalType": "address",
          "name": "",
          "type": "address"
        },
        {
          "internalType": "uint256",
          "name": "",
          "type": "uint256"
        }
      ],
      "name": "userItems",
      "outputs": [
        {
          "internalType": "uint256",
          "name": "itemId",
          "type": "uint256"
        },
        {
          "internalType": "string",
          "name": "itemName",
          "type": "string"
        },
        {
          "internalType": "address payable",
          "name": "userAddress",
          "type": "address"
        },
        {
          "internalType": "uint256",
          "name": "price",
          "type": "uint256"
        },
        {
          "internalType": "string",
          "name": "imageURL",
          "type": "string"
        }
      ],
      "stateMutability": "view",
      "type": "function"
    },
    {
      "inputs": [
        {
          "internalType": "address",
          "name": "",
          "type": "address"
        },
        {
          "internalType": "uint256",
          "name": "",
          "type": "uint256"
        }
      ],
      "name": "userReviews",
      "outputs": [
        {
          "internalType": "uint256",
          "name": "reviewId",
          "type": "uint256"
        },
        {
          "internalType": "address",
          "name": "reviewer",
          "type": "address"
        },
        {
          "internalType": "address",
          "name": "reviewedUser",
          "type": "address"
        },
        {
          "internalType": "string",
          "name": "content",
          "type": "string"
        }
      ],
      "stateMutability": "view",
      "type": "function"
    },
    {
      "inputs": [],
      "name": "userTrue",
      "outputs": [
        {
          "components": [
            {
              "internalType": "string",
              "name": "name",
              "type": "string"
            },
            {
              "internalType": "string",
              "name": "ug",
              "type": "string"
            },
            {
              "internalType": "string",
              "name": "branch",
              "type": "string"
            },
            {
              "internalType": "address payable",
              "name": "userAddress",
              "type": "address"
            },
            {
              "internalType": "bool",
              "name": "isRegistered",
              "type": "bool"
            },
            {
              "internalType": "uint256[]",
              "name": "purchasedItemIds",
              "type": "uint256[]"
            }
          ],
          "internalType": "struct Trash.User",
          "name": "",
          "type": "tuple"
        }
      ],
      "stateMutability": "view",
      "type": "function"
    },
    {
      "inputs": [
        {
          "internalType": "address",
          "name": "",
          "type": "address"
        }
      ],
      "name": "users",
      "outputs": [
        {
          "internalType": "string",
          "name": "name",
          "type": "string"
        },
        {
          "internalType": "string",
          "name": "ug",
          "type": "string"
        },
        {
          "internalType": "string",
          "name": "branch",
          "type": "string"
        },
        {
          "internalType": "address payable",
          "name": "userAddress",
          "type": "address"
        },
        {
          "internalType": "bool",
          "name": "isRegistered",
          "type": "bool"
        }
      ],
      "stateMutability": "view",
      "type": "function"
    },
    {
      "inputs": [],
      "name": "viewAllItems",
      "outputs": [
        {
          "components": [
            {
              "internalType": "uint256",
              "name": "itemId",
              "type": "uint256"
            },
            {
              "internalType": "string",
              "name": "itemName",
              "type": "string"
            },
            {
              "internalType": "address payable",
              "name": "userAddress",
              "type": "address"
            },
            {
              "internalType": "uint256",
              "name": "price",
              "type": "uint256"
            },
            {
              "internalType": "string",
              "name": "imageURL",
              "type": "string"
            }
          ],
          "internalType": "struct Trash.Item[]",
          "name": "",
          "type": "tuple[]"
        }
      ],
      "stateMutability": "view",
      "type": "function"
    },
    {
      "inputs": [],
      "name": "viewSellerItems",
      "outputs": [
        {
          "components": [
            {
              "internalType": "uint256",
              "name": "itemId",
              "type": "uint256"
            },
            {
              "internalType": "string",
              "name": "itemName",
              "type": "string"
            },
            {
              "internalType": "address payable",
              "name": "userAddress",
              "type": "address"
            },
            {
              "internalType": "uint256",
              "name": "price",
              "type": "uint256"
            },
            {
              "internalType": "string",
              "name": "imageURL",
              "type": "string"
            }
          ],
          "internalType": "struct Trash.Item[]",
          "name": "",
          "type": "tuple[]"
        }
      ],
      "stateMutability": "view",
      "type": "function"
    },
    {
      "inputs": [
        {
          "internalType": "address payable",
          "name": "userAddress",
          "type": "address"
        }
      ],
      "name": "viewUser",
      "outputs": [
        {
          "components": [
            {
              "internalType": "string",
              "name": "name",
              "type": "string"
            },
            {
              "internalType": "string",
              "name": "ug",
              "type": "string"
            },
            {
              "internalType": "string",
              "name": "branch",
              "type": "string"
            },
            {
              "internalType": "address payable",
              "name": "userAddress",
              "type": "address"
            },
            {
              "internalType": "bool",
              "name": "isRegistered",
              "type": "bool"
            },
            {
              "internalType": "uint256[]",
              "name": "purchasedItemIds",
              "type": "uint256[]"
            }
          ],
          "internalType": "struct Trash.User",
          "name": "",
          "type": "tuple"
        }
      ],
      "stateMutability": "view",
      "type": "function"
    },
    {
      "inputs": [
        {
          "internalType": "address",
          "name": "_user",
          "type": "address"
        }
      ],
      "name": "viewUserReviews",
      "outputs": [
        {
          "components": [
            {
              "internalType": "uint256",
              "name": "reviewId",
              "type": "uint256"
            },
            {
              "internalType": "address",
              "name": "reviewer",
              "type": "address"
            },
            {
              "internalType": "address",
              "name": "reviewedUser",
              "type": "address"
            },
            {
              "internalType": "string",
              "name": "content",
              "type": "string"
            }
          ],
          "internalType": "struct Trash.Review[]",
          "name": "",
          "type": "tuple[]"
        }
      ],
      "stateMutability": "view",
      "type": "function"
    },
    {
      "inputs": [
        {
          "internalType": "address",
          "name": "_reviewedUser",
          "type": "address"
        },
        {
          "internalType": "string",
          "name": "_content",
          "type": "string"
        }
      ],
      "name": "writeReview",
      "outputs": [],
      "stateMutability": "nonpayable",
      "type": "function"
    }
  ],
  "bytecode": "0x608060405234801561001057600080fd5b50336000806101000a81548173ffffffffffffffffffffffffffffffffffffffff021916908373ffffffffffffffffffffffffffffffffffffffff1602179055506001808190555060016002819055506145138061006f6000396000f3fe60806040526004361061011f5760003560e01c8063bfb231d2116100a0578063e168b3a811610064578063e168b3a814610425578063ed0c0d4f14610450578063f851a4401461047b578063ff68fa6e146104a6578063ffa590ae146104e75761011f565b8063bfb231d21461034b578063c6d1c9581461038c578063c75bb918146103b7578063d38ea5bf146103e0578063d637dcfa146103fc5761011f565b80636cc8bda7116100e75780636cc8bda7146102245780637b3963e9146102615780637ca8c8231461028c578063a87430ba146102cd578063b973cfb51461030e5761011f565b8063053b062c146101245780631dbc3a8d1461014f5780631f4ac1291461017a5780635c3bd141146101ba5780635dceda35146101fb575b600080fd5b34801561013057600080fd5b50610139610527565b604051610146919061317a565b60405180910390f35b34801561015b57600080fd5b5061016461052d565b60405161017191906133dd565b60405180910390f35b34801561018657600080fd5b506101a1600480360381019061019c919061347d565b610803565b6040516101b19493929190613516565b60405180910390f35b3480156101c657600080fd5b506101e160048036038101906101dc919061347d565b610918565b6040516101f2959493929190613571565b60405180910390f35b34801561020757600080fd5b50610222600480360381019061021d9190613707565b610a9b565b005b34801561023057600080fd5b5061024b6004803603810190610246919061378f565b610e89565b60405161025891906133dd565b60405180910390f35b34801561026d57600080fd5b50610276611161565b60405161028391906138fb565b60405180910390f35b34801561029857600080fd5b506102b360048036038101906102ae919061347d565b61138b565b6040516102c4959493929190613571565b60405180910390f35b3480156102d957600080fd5b506102f460048036038101906102ef919061391d565b61150e565b604051610305959493929190613959565b60405180910390f35b34801561031a57600080fd5b506103356004803603810190610330919061391d565b611709565b6040516103429190613af5565b60405180910390f35b34801561035757600080fd5b50610372600480360381019061036d9190613b17565b6118ef565b604051610383959493929190613571565b60405180910390f35b34801561039857600080fd5b506103a1611a55565b6040516103ae91906138fb565b60405180910390f35b3480156103c357600080fd5b506103de60048036038101906103d99190613b44565b611c7f565b005b6103fa60048036038101906103f59190613b17565b61200a565b005b34801561040857600080fd5b50610423600480360381019061041e9190613bcf565b61295a565b005b34801561043157600080fd5b5061043a612bd4565b604051610447919061317a565b60405180910390f35b34801561045c57600080fd5b50610465612bda565b60405161047291906138fb565b60405180910390f35b34801561048757600080fd5b50610490612dc7565b60405161049d9190613c76565b60405180910390f35b3480156104b257600080fd5b506104cd60048036038101906104c89190613b17565b612deb565b6040516104de959493929190613571565b60405180910390f35b3480156104f357600080fd5b5061050e60048036038101906105099190613b17565b612f61565b60405161051e9493929190613516565b60405180910390f35b60015481565b610535613069565b600560003373ffffffffffffffffffffffffffffffffffffffff1673ffffffffffffffffffffffffffffffffffffffff1681526020019081526020016000206040518060c001604052908160008201805461058f90613cc0565b80601f01602080910402602001604051908101604052809291908181526020018280546105bb90613cc0565b80156106085780601f106105dd57610100808354040283529160200191610608565b820191906000526020600020905b8154815290600101906020018083116105eb57829003601f168201915b5050505050815260200160018201805461062190613cc0565b80601f016020809104026020016040519081016040528092919081815260200182805461064d90613cc0565b801561069a5780601f1061066f5761010080835404028352916020019161069a565b820191906000526020600020905b81548152906001019060200180831161067d57829003601f168201915b505050505081526020016002820180546106b390613cc0565b80601f01602080910402602001604051908101604052809291908181526020018280546106df90613cc0565b801561072c5780601f106107015761010080835404028352916020019161072c565b820191906000526020600020905b81548152906001019060200180831161070f57829003601f168201915b505050505081526020016003820160009054906101000a900473ffffffffffffffffffffffffffffffffffffffff1673ffffffffffffffffffffffffffffffffffffffff1673ffffffffffffffffffffffffffffffffffffffff1681526020016003820160149054906101000a900460ff16151515158152602001600482018054806020026020016040519081016040528092919081815260200182805480156107f557602002820191906000526020600020905b8154815260200190600101908083116107e1575b505050505081525050905090565b6009602052816000526040600020818154811061081f57600080fd5b9060005260206000209060040201600091509150508060000154908060010160009054906101000a900473ffffffffffffffffffffffffffffffffffffffff16908060020160009054906101000a900473ffffffffffffffffffffffffffffffffffffffff169080600301805461089590613cc0565b80601f01602080910402602001604051908101604052809291908181526020018280546108c190613cc0565b801561090e5780601f106108e35761010080835404028352916020019161090e565b820191906000526020600020905b8154815290600101906020018083116108f157829003601f168201915b5050505050905084565b6006602052816000526040600020818154811061093457600080fd5b90600052602060002090600502016000915091505080600001549080600101805461095e90613cc0565b80601f016020809104026020016040519081016040528092919081815260200182805461098a90613cc0565b80156109d75780601f106109ac576101008083540402835291602001916109d7565b820191906000526020600020905b8154815290600101906020018083116109ba57829003601f168201915b5050505050908060020160009054906101000a900473ffffffffffffffffffffffffffffffffffffffff1690806003015490806004018054610a1890613cc0565b80601f0160208091040260200160405190810160405280929190818152602001828054610a4490613cc0565b8015610a915780601f10610a6657610100808354040283529160200191610a91565b820191906000526020600020905b815481529060010190602001808311610a7457829003601f168201915b5050505050905085565b600560003373ffffffffffffffffffffffffffffffffffffffff1673ffffffffffffffffffffffffffffffffffffffff16815260200190815260200160002060030160149054906101000a900460ff16610b2a576040517f08c379a0000000000000000000000000000000000000000000000000000000008152600401610b2190613d63565b60405180910390fd5b600560008373ffffffffffffffffffffffffffffffffffffffff1673ffffffffffffffffffffffffffffffffffffffff16815260200190815260200160002060030160149054906101000a900460ff16610bb9576040517f08c379a0000000000000000000000000000000000000000000000000000000008152600401610bb090613dcf565b60405180910390fd5b6000604051806080016040528060025481526020013373ffffffffffffffffffffffffffffffffffffffff1681526020018473ffffffffffffffffffffffffffffffffffffffff16815260200183815250905060048190806001815401808255809150506001900390600052602060002090600402016000909190919091506000820151816000015560208201518160010160006101000a81548173ffffffffffffffffffffffffffffffffffffffff021916908373ffffffffffffffffffffffffffffffffffffffff16021790555060408201518160020160006101000a81548173ffffffffffffffffffffffffffffffffffffffff021916908373ffffffffffffffffffffffffffffffffffffffff1602179055506060820151816003019081610ce59190613f9b565b505050600960008473ffffffffffffffffffffffffffffffffffffffff1673ffffffffffffffffffffffffffffffffffffffff1681526020019081526020016000208190806001815401808255809150506001900390600052602060002090600402016000909190919091506000820151816000015560208201518160010160006101000a81548173ffffffffffffffffffffffffffffffffffffffff021916908373ffffffffffffffffffffffffffffffffffffffff16021790555060408201518160020160006101000a81548173ffffffffffffffffffffffffffffffffffffffff021916908373ffffffffffffffffffffffffffffffffffffffff1602179055506060820151816003019081610dfe9190613f9b565b50505060026000815480929190610e149061409c565b91905055508273ffffffffffffffffffffffffffffffffffffffff163373ffffffffffffffffffffffffffffffffffffffff167f69d812553d174f1100cbc6d20d2f8e0b5d7318c08bd9070b65db11dee6329e40836000015185604051610e7c9291906140e4565b60405180910390a3505050565b610e91613069565b600560008373ffffffffffffffffffffffffffffffffffffffff1673ffffffffffffffffffffffffffffffffffffffff1681526020019081526020016000206040518060c0016040529081600082018054610eeb90613cc0565b80601f0160208091040260200160405190810160405280929190818152602001828054610f1790613cc0565b8015610f645780601f10610f3957610100808354040283529160200191610f64565b820191906000526020600020905b815481529060010190602001808311610f4757829003601f168201915b50505050508152602001600182018054610f7d90613cc0565b80601f0160208091040260200160405190810160405280929190818152602001828054610fa990613cc0565b8015610ff65780601f10610fcb57610100808354040283529160200191610ff6565b820191906000526020600020905b815481529060010190602001808311610fd957829003601f168201915b5050505050815260200160028201805461100f90613cc0565b80601f016020809104026020016040519081016040528092919081815260200182805461103b90613cc0565b80156110885780601f1061105d57610100808354040283529160200191611088565b820191906000526020600020905b81548152906001019060200180831161106b57829003601f168201915b505050505081526020016003820160009054906101000a900473ffffffffffffffffffffffffffffffffffffffff1673ffffffffffffffffffffffffffffffffffffffff1673ffffffffffffffffffffffffffffffffffffffff1681526020016003820160149054906101000a900460ff161515151581526020016004820180548060200260200160405190810160405280929190818152602001828054801561115157602002820191906000526020600020905b81548152602001906001019080831161113d575b5050505050815250509050919050565b6060600660003373ffffffffffffffffffffffffffffffffffffffff1673ffffffffffffffffffffffffffffffffffffffff168152602001908152602001600020805480602002602001604051908101604052809291908181526020016000905b8282101561138257838290600052602060002090600502016040518060a0016040529081600082015481526020016001820180546111ff90613cc0565b80601f016020809104026020016040519081016040528092919081815260200182805461122b90613cc0565b80156112785780601f1061124d57610100808354040283529160200191611278565b820191906000526020600020905b81548152906001019060200180831161125b57829003601f168201915b505050505081526020016002820160009054906101000a900473ffffffffffffffffffffffffffffffffffffffff1673ffffffffffffffffffffffffffffffffffffffff1673ffffffffffffffffffffffffffffffffffffffff168152602001600382015481526020016004820180546112f190613cc0565b80601f016020809104026020016040519081016040528092919081815260200182805461131d90613cc0565b801561136a5780601f1061133f5761010080835404028352916020019161136a565b820191906000526020600020905b81548152906001019060200180831161134d57829003601f168201915b505050505081525050815260200190600101906111c2565b50505050905090565b600860205281600052604060002081815481106113a757600080fd5b9060005260206000209060050201600091509150508060000154908060010180546113d190613cc0565b80601f01602080910402602001604051908101604052809291908181526020018280546113fd90613cc0565b801561144a5780601f1061141f5761010080835404028352916020019161144a565b820191906000526020600020905b81548152906001019060200180831161142d57829003601f168201915b5050505050908060020160009054906101000a900473ffffffffffffffffffffffffffffffffffffffff169080600301549080600401805461148b90613cc0565b80601f01602080910402602001604051908101604052809291908181526020018280546114b790613cc0565b80156115045780601f106114d957610100808354040283529160200191611504565b820191906000526020600020905b8154815290600101906020018083116114e757829003601f168201915b5050505050905085565b600560205280600052604060002060009150905080600001805461153190613cc0565b80601f016020809104026020016040519081016040528092919081815260200182805461155d90613cc0565b80156115aa5780601f1061157f576101008083540402835291602001916115aa565b820191906000526020600020905b81548152906001019060200180831161158d57829003601f168201915b5050505050908060010180546115bf90613cc0565b80601f01602080910402602001604051908101604052809291908181526020018280546115eb90613cc0565b80156116385780601f1061160d57610100808354040283529160200191611638565b820191906000526020600020905b81548152906001019060200180831161161b57829003601f168201915b50505050509080600201805461164d90613cc0565b80601f016020809104026020016040519081016040528092919081815260200182805461167990613cc0565b80156116c65780601f1061169b576101008083540402835291602001916116c6565b820191906000526020600020905b8154815290600101906020018083116116a957829003601f168201915b5050505050908060030160009054906101000a900473ffffffffffffffffffffffffffffffffffffffff16908060030160149054906101000a900460ff16905085565b6060600960008373ffffffffffffffffffffffffffffffffffffffff1673ffffffffffffffffffffffffffffffffffffffff168152602001908152602001600020805480602002602001604051908101604052809291908181526020016000905b828210156118e45783829060005260206000209060040201604051806080016040529081600082015481526020016001820160009054906101000a900473ffffffffffffffffffffffffffffffffffffffff1673ffffffffffffffffffffffffffffffffffffffff1673ffffffffffffffffffffffffffffffffffffffff1681526020016002820160009054906101000a900473ffffffffffffffffffffffffffffffffffffffff1673ffffffffffffffffffffffffffffffffffffffff1673ffffffffffffffffffffffffffffffffffffffff16815260200160038201805461185390613cc0565b80601f016020809104026020016040519081016040528092919081815260200182805461187f90613cc0565b80156118cc5780601f106118a1576101008083540402835291602001916118cc565b820191906000526020600020905b8154815290600101906020018083116118af57829003601f168201915b5050505050815250508152602001906001019061176a565b505050509050919050565b600760205280600052604060002060009150905080600001549080600101805461191890613cc0565b80601f016020809104026020016040519081016040528092919081815260200182805461194490613cc0565b80156119915780601f1061196657610100808354040283529160200191611991565b820191906000526020600020905b81548152906001019060200180831161197457829003601f168201915b5050505050908060020160009054906101000a900473ffffffffffffffffffffffffffffffffffffffff16908060030154908060040180546119d290613cc0565b80601f01602080910402602001604051908101604052809291908181526020018280546119fe90613cc0565b8015611a4b5780601f10611a2057610100808354040283529160200191611a4b565b820191906000526020600020905b815481529060010190602001808311611a2e57829003601f168201915b5050505050905085565b6060600860003373ffffffffffffffffffffffffffffffffffffffff1673ffffffffffffffffffffffffffffffffffffffff168152602001908152602001600020805480602002602001604051908101604052809291908181526020016000905b82821015611c7657838290600052602060002090600502016040518060a001604052908160008201548152602001600182018054611af390613cc0565b80601f0160208091040260200160405190810160405280929190818152602001828054611b1f90613cc0565b8015611b6c5780601f10611b4157610100808354040283529160200191611b6c565b820191906000526020600020905b815481529060010190602001808311611b4f57829003601f168201915b505050505081526020016002820160009054906101000a900473ffffffffffffffffffffffffffffffffffffffff1673ffffffffffffffffffffffffffffffffffffffff1673ffffffffffffffffffffffffffffffffffffffff16815260200160038201548152602001600482018054611be590613cc0565b80601f0160208091040260200160405190810160405280929190818152602001828054611c1190613cc0565b8015611c5e5780601f10611c3357610100808354040283529160200191611c5e565b820191906000526020600020905b815481529060010190602001808311611c4157829003601f168201915b50505050508152505081526020019060010190611ab6565b50505050905090565b600560003373ffffffffffffffffffffffffffffffffffffffff1673ffffffffffffffffffffffffffffffffffffffff16815260200190815260200160002060030160149054906101000a900460ff16611d0e576040517f08c379a0000000000000000000000000000000000000000000000000000000008152600401611d0590614160565b60405180910390fd5b60006040518060a0016040528060015481526020018581526020013373ffffffffffffffffffffffffffffffffffffffff168152602001848152602001838152509050600660003373ffffffffffffffffffffffffffffffffffffffff1673ffffffffffffffffffffffffffffffffffffffff168152602001908152602001600020819080600181540180825580915050600190039060005260206000209060050201600090919091909150600082015181600001556020820151816001019081611dd99190613f9b565b5060408201518160020160006101000a81548173ffffffffffffffffffffffffffffffffffffffff021916908373ffffffffffffffffffffffffffffffffffffffff160217905550606082015181600301556080820151816004019081611e409190613f9b565b5050506003819080600181540180825580915050600190039060005260206000209060050201600090919091909150600082015181600001556020820151816001019081611e8e9190613f9b565b5060408201518160020160006101000a81548173ffffffffffffffffffffffffffffffffffffffff021916908373ffffffffffffffffffffffffffffffffffffffff160217905550606082015181600301556080820151816004019081611ef59190613f9b565b50505080600760006001548152602001908152602001600020600082015181600001556020820151816001019081611f2d9190613f9b565b5060408201518160020160006101000a81548173ffffffffffffffffffffffffffffffffffffffff021916908373ffffffffffffffffffffffffffffffffffffffff160217905550606082015181600301556080820151816004019081611f949190613f9b565b509050503373ffffffffffffffffffffffffffffffffffffffff167ffe81013ee97eb41c91a52b0072917e4b6d75bd1c2a266966669c3323c0d6f3798560015486604051611fe493929190614180565b60405180910390a260016000815480929190611fff9061409c565b919050555050505050565b60008111801561201c57506001548111155b61205b576040517f08c379a00000000000000000000000000000000000000000000000000000000081526004016120529061420a565b60405180910390fd5b6000600360018361206c919061422a565b8154811061207d5761207c61425e565b5b9060005260206000209060050201905080600301543410156120d4576040517f08c379a00000000000000000000000000000000000000000000000000000000081526004016120cb906142d9565b60405180910390fd5b6000600560003373ffffffffffffffffffffffffffffffffffffffff1673ffffffffffffffffffffffffffffffffffffffff16815260200190815260200160002090506000600560008460020160009054906101000a900473ffffffffffffffffffffffffffffffffffffffff1673ffffffffffffffffffffffffffffffffffffffff1673ffffffffffffffffffffffffffffffffffffffff16815260200190815260200160002090508060030160009054906101000a900473ffffffffffffffffffffffffffffffffffffffff1673ffffffffffffffffffffffffffffffffffffffff166108fc349081150290604051600060405180830381858888f193505050501580156121e8573d6000803e3d6000fd5b50600860003373ffffffffffffffffffffffffffffffffffffffff1673ffffffffffffffffffffffffffffffffffffffff1681526020019081526020016000208390806001815401808255809150506001900390600052602060002090600502016000909190919091506000820154816000015560018201816001019081612270919061430f565b506002820160009054906101000a900473ffffffffffffffffffffffffffffffffffffffff168160020160006101000a81548173ffffffffffffffffffffffffffffffffffffffff021916908373ffffffffffffffffffffffffffffffffffffffff16021790555060038201548160030155600482018160040190816122f6919061430f565b5050508160040184908060018154018082558091505060019003906000526020600020016000909190919091505560005b600660008560020160009054906101000a900473ffffffffffffffffffffffffffffffffffffffff1673ffffffffffffffffffffffffffffffffffffffff1673ffffffffffffffffffffffffffffffffffffffff1681526020019081526020016000208054905081101561273d5784600660008660020160009054906101000a900473ffffffffffffffffffffffffffffffffffffffff1673ffffffffffffffffffffffffffffffffffffffff1673ffffffffffffffffffffffffffffffffffffffff168152602001908152602001600020828154811061240b5761240a61425e565b5b9060005260206000209060050201600001540361272a57600660008560020160009054906101000a900473ffffffffffffffffffffffffffffffffffffffff1673ffffffffffffffffffffffffffffffffffffffff1673ffffffffffffffffffffffffffffffffffffffff1681526020019081526020016000206001600660008760020160009054906101000a900473ffffffffffffffffffffffffffffffffffffffff1673ffffffffffffffffffffffffffffffffffffffff1673ffffffffffffffffffffffffffffffffffffffff168152602001908152602001600020805490506124f8919061422a565b815481106125095761250861425e565b5b9060005260206000209060050201600660008660020160009054906101000a900473ffffffffffffffffffffffffffffffffffffffff1673ffffffffffffffffffffffffffffffffffffffff1673ffffffffffffffffffffffffffffffffffffffff168152602001908152602001600020828154811061258c5761258b61425e565b5b906000526020600020906005020160008201548160000155600182018160010190816125b8919061430f565b506002820160009054906101000a900473ffffffffffffffffffffffffffffffffffffffff168160020160006101000a81548173ffffffffffffffffffffffffffffffffffffffff021916908373ffffffffffffffffffffffffffffffffffffffff160217905550600382015481600301556004820181600401908161263e919061430f565b50905050600660008560020160009054906101000a900473ffffffffffffffffffffffffffffffffffffffff1673ffffffffffffffffffffffffffffffffffffffff1673ffffffffffffffffffffffffffffffffffffffff1681526020019081526020016000208054806126b5576126b46143f7565b5b60019003818190600052602060002090600502016000808201600090556001820160006126e291906130b7565b6002820160006101000a81549073ffffffffffffffffffffffffffffffffffffffff0219169055600382016000905560048201600061272191906130b7565b5050905561273d565b80806127359061409c565b915050612327565b5060036001600380549050612752919061422a565b815481106127635761276261425e565b5b90600052602060002090600502016003600186612780919061422a565b815481106127915761279061425e565b5b906000526020600020906005020160008201548160000155600182018160010190816127bd919061430f565b506002820160009054906101000a900473ffffffffffffffffffffffffffffffffffffffff168160020160006101000a81548173ffffffffffffffffffffffffffffffffffffffff021916908373ffffffffffffffffffffffffffffffffffffffff1602179055506003820154816003015560048201816004019081612843919061430f565b509050506003805480612859576128586143f7565b5b600190038181906000526020600020906005020160008082016000905560018201600061288691906130b7565b6002820160006101000a81549073ffffffffffffffffffffffffffffffffffffffff021916905560038201600090556004820160006128c591906130b7565b505090558260020160009054906101000a900473ffffffffffffffffffffffffffffffffffffffff1673ffffffffffffffffffffffffffffffffffffffff163373ffffffffffffffffffffffffffffffffffffffff167f53d5014fa27fa078ecec13b4311f8520b2192980af8b38cf8e870ed265760464863460405161294c929190614426565b60405180910390a350505050565b600560003373ffffffffffffffffffffffffffffffffffffffff1673ffffffffffffffffffffffffffffffffffffffff16815260200190815260200160002060030160149054906101000a900460ff16156129ea576040517f08c379a00000000000000000000000000000000000000000000000000000000081526004016129e19061449b565b60405180910390fd5b6040518060c001604052808481526020018381526020018281526020013373ffffffffffffffffffffffffffffffffffffffff168152602001600115158152602001600067ffffffffffffffff811115612a4757612a466135dc565b5b604051908082528060200260200182016040528015612a755781602001602082028036833780820191505090505b50815250600560003373ffffffffffffffffffffffffffffffffffffffff1673ffffffffffffffffffffffffffffffffffffffff1681526020019081526020016000206000820151816000019081612acd9190613f9b565b506020820151816001019081612ae39190613f9b565b506040820151816002019081612af99190613f9b565b5060608201518160030160006101000a81548173ffffffffffffffffffffffffffffffffffffffff021916908373ffffffffffffffffffffffffffffffffffffffff16021790555060808201518160030160146101000a81548160ff02191690831515021790555060a0820151816004019080519060200190612b7d9291906130f7565b509050503373ffffffffffffffffffffffffffffffffffffffff167f48cac28ad4dc618e15f4c2dd5e97751182f166de97b25618318b2112aa951a2f84604051612bc791906144bb565b60405180910390a2505050565b60025481565b60606003805480602002602001604051908101604052809291908181526020016000905b82821015612dbe57838290600052602060002090600502016040518060a001604052908160008201548152602001600182018054612c3b90613cc0565b80601f0160208091040260200160405190810160405280929190818152602001828054612c6790613cc0565b8015612cb45780601f10612c8957610100808354040283529160200191612cb4565b820191906000526020600020905b815481529060010190602001808311612c9757829003601f168201915b505050505081526020016002820160009054906101000a900473ffffffffffffffffffffffffffffffffffffffff1673ffffffffffffffffffffffffffffffffffffffff1673ffffffffffffffffffffffffffffffffffffffff16815260200160038201548152602001600482018054612d2d90613cc0565b80601f0160208091040260200160405190810160405280929190818152602001828054612d5990613cc0565b8015612da65780601f10612d7b57610100808354040283529160200191612da6565b820191906000526020600020905b815481529060010190602001808311612d8957829003601f168201915b50505050508152505081526020019060010190612bfe565b50505050905090565b60008054906101000a900473ffffffffffffffffffffffffffffffffffffffff1681565b60038181548110612dfb57600080fd5b9060005260206000209060050201600091509050806000015490806001018054612e2490613cc0565b80601f0160208091040260200160405190810160405280929190818152602001828054612e5090613cc0565b8015612e9d5780601f10612e7257610100808354040283529160200191612e9d565b820191906000526020600020905b815481529060010190602001808311612e8057829003601f168201915b5050505050908060020160009054906101000a900473ffffffffffffffffffffffffffffffffffffffff1690806003015490806004018054612ede90613cc0565b80601f0160208091040260200160405190810160405280929190818152602001828054612f0a90613cc0565b8015612f575780601f10612f2c57610100808354040283529160200191612f57565b820191906000526020600020905b815481529060010190602001808311612f3a57829003601f168201915b5050505050905085565b60048181548110612f7157600080fd5b90600052602060002090600402016000915090508060000154908060010160009054906101000a900473ffffffffffffffffffffffffffffffffffffffff16908060020160009054906101000a900473ffffffffffffffffffffffffffffffffffffffff1690806003018054612fe690613cc0565b80601f016020809104026020016040519081016040528092919081815260200182805461301290613cc0565b801561305f5780601f106130345761010080835404028352916020019161305f565b820191906000526020600020905b81548152906001019060200180831161304257829003601f168201915b5050505050905084565b6040518060c00160405280606081526020016060815260200160608152602001600073ffffffffffffffffffffffffffffffffffffffff168152602001600015158152602001606081525090565b5080546130c390613cc0565b6000825580601f106130d557506130f4565b601f0160209004906000526020600020908101906130f39190613144565b5b50565b828054828255906000526020600020908101928215613133579160200282015b82811115613132578251825591602001919060010190613117565b5b5090506131409190613144565b5090565b5b8082111561315d576000816000905550600101613145565b5090565b6000819050919050565b61317481613161565b82525050565b600060208201905061318f600083018461316b565b92915050565b600081519050919050565b600082825260208201905092915050565b60005b838110156131cf5780820151818401526020810190506131b4565b60008484015250505050565b6000601f19601f8301169050919050565b60006131f782613195565b61320181856131a0565b93506132118185602086016131b1565b61321a816131db565b840191505092915050565b600073ffffffffffffffffffffffffffffffffffffffff82169050919050565b600061325082613225565b9050919050565b61326081613245565b82525050565b60008115159050919050565b61327b81613266565b82525050565b600081519050919050565b600082825260208201905092915050565b6000819050602082019050919050565b6132b681613161565b82525050565b60006132c883836132ad565b60208301905092915050565b6000602082019050919050565b60006132ec82613281565b6132f6818561328c565b93506133018361329d565b8060005b8381101561333257815161331988826132bc565b9750613324836132d4565b925050600181019050613305565b5085935050505092915050565b600060c083016000830151848203600086015261335c82826131ec565b9150506020830151848203602086015261337682826131ec565b9150506040830151848203604086015261339082826131ec565b91505060608301516133a56060860182613257565b5060808301516133b86080860182613272565b5060a083015184820360a08601526133d082826132e1565b9150508091505092915050565b600060208201905081810360008301526133f7818461333f565b905092915050565b6000604051905090565b600080fd5b600080fd5b600061341e82613225565b9050919050565b61342e81613413565b811461343957600080fd5b50565b60008135905061344b81613425565b92915050565b61345a81613161565b811461346557600080fd5b50565b60008135905061347781613451565b92915050565b6000806040838503121561349457613493613409565b5b60006134a28582860161343c565b92505060206134b385828601613468565b9150509250929050565b6134c681613413565b82525050565b600082825260208201905092915050565b60006134e882613195565b6134f281856134cc565b93506135028185602086016131b1565b61350b816131db565b840191505092915050565b600060808201905061352b600083018761316b565b61353860208301866134bd565b61354560408301856134bd565b818103606083015261355781846134dd565b905095945050505050565b61356b81613245565b82525050565b600060a082019050613586600083018861316b565b818103602083015261359881876134dd565b90506135a76040830186613562565b6135b4606083018561316b565b81810360808301526135c681846134dd565b90509695505050505050565b600080fd5b600080fd5b7f4e487b7100000000000000000000000000000000000000000000000000000000600052604160045260246000fd5b613614826131db565b810181811067ffffffffffffffff82111715613633576136326135dc565b5b80604052505050565b60006136466133ff565b9050613652828261360b565b919050565b600067ffffffffffffffff821115613672576136716135dc565b5b61367b826131db565b9050602081019050919050565b82818337600083830152505050565b60006136aa6136a584613657565b61363c565b9050828152602081018484840111156136c6576136c56135d7565b5b6136d1848285613688565b509392505050565b600082601f8301126136ee576136ed6135d2565b5b81356136fe848260208601613697565b91505092915050565b6000806040838503121561371e5761371d613409565b5b600061372c8582860161343c565b925050602083013567ffffffffffffffff81111561374d5761374c61340e565b5b613759858286016136d9565b9150509250929050565b61376c81613245565b811461377757600080fd5b50565b60008135905061378981613763565b92915050565b6000602082840312156137a5576137a4613409565b5b60006137b38482850161377a565b91505092915050565b600081519050919050565b600082825260208201905092915050565b6000819050602082019050919050565b600060a08301600083015161380060008601826132ad565b506020830151848203602086015261381882826131ec565b915050604083015161382d6040860182613257565b50606083015161384060608601826132ad565b506080830151848203608086015261385882826131ec565b9150508091505092915050565b600061387183836137e8565b905092915050565b6000602082019050919050565b6000613891826137bc565b61389b81856137c7565b9350836020820285016138ad856137d8565b8060005b858110156138e957848403895281516138ca8582613865565b94506138d583613879565b925060208a019950506001810190506138b1565b50829750879550505050505092915050565b600060208201905081810360008301526139158184613886565b905092915050565b60006020828403121561393357613932613409565b5b60006139418482850161343c565b91505092915050565b61395381613266565b82525050565b600060a082019050818103600083015261397381886134dd565b9050818103602083015261398781876134dd565b9050818103604083015261399b81866134dd565b90506139aa6060830185613562565b6139b7608083018461394a565b9695505050505050565b600081519050919050565b600082825260208201905092915050565b6000819050602082019050919050565b6139f681613413565b82525050565b6000608083016000830151613a1460008601826132ad565b506020830151613a2760208601826139ed565b506040830151613a3a60408601826139ed565b5060608301518482036060860152613a5282826131ec565b9150508091505092915050565b6000613a6b83836139fc565b905092915050565b6000602082019050919050565b6000613a8b826139c1565b613a9581856139cc565b935083602082028501613aa7856139dd565b8060005b85811015613ae35784840389528151613ac48582613a5f565b9450613acf83613a73565b925060208a01995050600181019050613aab565b50829750879550505050505092915050565b60006020820190508181036000830152613b0f8184613a80565b905092915050565b600060208284031215613b2d57613b2c613409565b5b6000613b3b84828501613468565b91505092915050565b600080600060608486031215613b5d57613b5c613409565b5b600084013567ffffffffffffffff811115613b7b57613b7a61340e565b5b613b87868287016136d9565b9350506020613b9886828701613468565b925050604084013567ffffffffffffffff811115613bb957613bb861340e565b5b613bc5868287016136d9565b9150509250925092565b600080600060608486031215613be857613be7613409565b5b600084013567ffffffffffffffff811115613c0657613c0561340e565b5b613c12868287016136d9565b935050602084013567ffffffffffffffff811115613c3357613c3261340e565b5b613c3f868287016136d9565b925050604084013567ffffffffffffffff811115613c6057613c5f61340e565b5b613c6c868287016136d9565b9150509250925092565b6000602082019050613c8b60008301846134bd565b92915050565b7f4e487b7100000000000000000000000000000000000000000000000000000000600052602260045260246000fd5b60006002820490506001821680613cd857607f821691505b602082108103613ceb57613cea613c91565b5b50919050565b7f4f6e6c7920726567697374657265642075736572732063616e2077726974652060008201527f7265766965777300000000000000000000000000000000000000000000000000602082015250565b6000613d4d6027836134cc565b9150613d5882613cf1565b604082019050919050565b60006020820190508181036000830152613d7c81613d40565b9050919050565b7f52657669657765642075736572206973206e6f74207265676973746572656400600082015250565b6000613db9601f836134cc565b9150613dc482613d83565b602082019050919050565b60006020820190508181036000830152613de881613dac565b9050919050565b60008190508160005260206000209050919050565b60006020601f8301049050919050565b600082821b905092915050565b600060088302613e517fffffffffffffffffffffffffffffffffffffffffffffffffffffffffffffffff82613e14565b613e5b8683613e14565b95508019841693508086168417925050509392505050565b6000819050919050565b6000613e98613e93613e8e84613161565b613e73565b613161565b9050919050565b6000819050919050565b613eb283613e7d565b613ec6613ebe82613e9f565b848454613e21565b825550505050565b600090565b613edb613ece565b613ee6818484613ea9565b505050565b5b81811015613f0a57613eff600082613ed3565b600181019050613eec565b5050565b601f821115613f4f57613f2081613def565b613f2984613e04565b81016020851015613f38578190505b613f4c613f4485613e04565b830182613eeb565b50505b505050565b600082821c905092915050565b6000613f7260001984600802613f54565b1980831691505092915050565b6000613f8b8383613f61565b9150826002028217905092915050565b613fa482613195565b67ffffffffffffffff811115613fbd57613fbc6135dc565b5b613fc78254613cc0565b613fd2828285613f0e565b600060209050601f8311600181146140055760008415613ff3578287015190505b613ffd8582613f7f565b865550614065565b601f19841661401386613def565b60005b8281101561403b57848901518255600182019150602085019450602081019050614016565b868310156140585784890151614054601f891682613f61565b8355505b6001600288020188555050505b505050505050565b7f4e487b7100000000000000000000000000000000000000000000000000000000600052601160045260246000fd5b60006140a782613161565b91507fffffffffffffffffffffffffffffffffffffffffffffffffffffffffffffffff82036140d9576140d861406d565b5b600182019050919050565b60006040820190506140f9600083018561316b565b818103602083015261410b81846134dd565b90509392505050565b7f4f6e6c7920726567697374657265642075736572732063616e2073656c6c0000600082015250565b600061414a601e836134cc565b915061415582614114565b602082019050919050565b600060208201905081810360008301526141798161413d565b9050919050565b6000606082019050818103600083015261419a81866134dd565b90506141a9602083018561316b565b6141b6604083018461316b565b949350505050565b7f496e76616c6964206974656d2049440000000000000000000000000000000000600082015250565b60006141f4600f836134cc565b91506141ff826141be565b602082019050919050565b60006020820190508181036000830152614223816141e7565b9050919050565b600061423582613161565b915061424083613161565b92508282039050818111156142585761425761406d565b5b92915050565b7f4e487b7100000000000000000000000000000000000000000000000000000000600052603260045260246000fd5b7f496e636f7272656374207061796d656e7420616d6f756e740000000000000000600082015250565b60006142c36018836134cc565b91506142ce8261428d565b602082019050919050565b600060208201905081810360008301526142f2816142b6565b9050919050565b60008154905061430881613cc0565b9050919050565b81810361431d5750506143f5565b614326826142f9565b67ffffffffffffffff81111561433f5761433e6135dc565b5b6143498254613cc0565b614354828285613f0e565b6000601f8311600181146143835760008415614371578287015490505b61437b8582613f7f565b8655506143ee565b601f19841661439187613def565b965061439c86613def565b60005b828110156143c45784890154825560018201915060018501945060208101905061439f565b868310156143e157848901546143dd601f891682613f61565b8355505b6001600288020188555050505b5050505050505b565b7f4e487b7100000000000000000000000000000000000000000000000000000000600052603160045260246000fd5b600060408201905061443b600083018561316b565b614448602083018461316b565b9392505050565b7f5573657220616c72656164792072656769737465726564000000000000000000600082015250565b60006144856017836134cc565b91506144908261444f565b602082019050919050565b600060208201905081810360008301526144b481614478565b9050919050565b600060208201905081810360008301526144d581846134dd565b90509291505056fea26469706673582212207e1a6fb56f33d8552aa4bb9eac39d5541f3c3fe543c9b817e505a15fb97405ad64736f6c63430008130033",
  "linkReferences": {},
  "deployedLinkReferences": {}
}